:070D6300011001020E000067
:03000300020B5A93
:100B5A00C0E0C0F0C083C082C0D075D000C000C061
:0D0B6A0001C002C003C004C005C006C007E2
:100B770085B011E511120B340BDE100BD9110BA741
:100B8700130BD4170BCF300BCA310BC5330BC03740
:100B97000BBB700BB6710BB1730BAC7700000BE39B
:100BA700750830803A7508318035750832803075A0
:100BB7000833802B75083480267508358021750821
:100BC70036801C7508378017750838801275083904
:100BD700800D75082C800875086580037508FFE58A
:100BE70008B42C1F85100D050FE50FAE0E7002051A
:100BF7000E14FF74002FF58274003EF583E508F0AC
:100C07007508FFE508B465347508FFAF0CAE0BAD8A
:100C17000AAC09C004C005C006C007AC0DEC120A37
:100C2700A8A804A905AA06AB07D007D006D005D007
:100C370004120A018F0C8E0B8D0A8C09AF08EF3353
:100C470095E0FEEF64FF4E6060050FE50FAE0E7096
:100C570002050E14FF74002FF58274003EF583E53C
:100C670008F0E51075F00AA4F5107F007E007D20DE
:100C77007C41AB0CAA0BA90AA8091208F8C004C04A
:100C870005C006C007E508540FFCEC120AA8A80423
:100C9700A905AA06AB07D007D006D005D0041208CD
:0C0CA700078F0C8E0B8D0A8C0930A8FD05
:100CB300D007D006D005D004D003D002D001D00095
:0B0CC300D0D0D082D083D0F0D0E0323F
:090D5A00D2A8D288D2AF80FE229B
:10080000020B11E86480F8E933E83360110460F00A
:10081000ED33EC337009E8FCE9FDEAFEEBFF22045E
:1008200060DED3EB9FEA9EE99DE8C2E78CF0C2F759
:1008300095F0400CE8CCF8E9CDF9EACEFAEBCFFB25
:10084000120ADC85D0F05804700320D5B3E8047098
:10085000075002B2D5020B1B92D5EC0460F7E4CC32
:10086000C0E0C398F8603B94186008400DD0E0FBEE
:10087000020AF3E4FBFAC9FC8028E830E406E4C984
:10088000FBE4CAFCE830E305E4C9CACBFCE8540742
:100890006010F8C3E913F9EA13FAEB13FBEC13FC4D
:1008A000D8F130F52FC3E49CFCEF9BFFEE9AFEEDF0
:1008B00099FDD0E0FBEF4E4D4C701222DB03020B92
:1008C00018EC2CFCEF33FFEE33FEED33FDED30E79B
:1008D000EB020AF3EF2BFFEE3AFEED39FDD0E0FB21
:1008E00050130BBB0003020B1BED13FDEE13FEEFC9
:0808F00013FFEC13FC020AF3F4
:1008F800EC4D6011E8497017ED33EC3304600DE4FA
:10090800FCFFFEFD22E933E8330470F8020B1112F4
:100918000ADC58046009E4CC2481500628500902F6
:100928000B1B284003020B18C0E0EB4A7044B98047
:1009380006D0E0FB020B07EF4E701CBD8008EBFFF2
:10094800EAFEE9FD80EBE98DF0A4FEE5F00209E19D
:10095800E9CDF9EAFEEBFFEF89F0A4FCE5F0CE89DA
:10096800F0A42EFFE435F0CD89F0A42DFEE435F097
:100978008067EF4E7005BD80D780C3EF8BF0A4ACC5
:10098800F0EE8BF0A42CFCE435F0F8EF8AF0A42C00
:10099800E5F038FCE433CB8DF0A42CFCE5F03BF813
:1009A800EE8AF0A42CFCE5F038F8E433CF89F0A403
:1009B8002CFCE5F038CF3400CE89F0A42FFFE5F009
:1009C8003EFEE433C98DF0A42EFEE5F039CD8AF061
:1009D800A42FFFE5F03EFEE43DFD33D0E0FB5007D9
:1009E8000BBB000F020B1BEC2CFCEF33FFEE33FEAE
:0609F800ED33FD020AF3DD
:1009FE00020B1BEC5D046005E859047003020B1139
:100A0E00120ADC580460F6EC4860F2EC7004FDFE4D
:100A1E00FF22C860DB2481C85009C39860025006CB
:100A2E00020B189850CAF582E9294B4A7005AB8221
:100A3E00020B0775F0007C1A7880C3EF9BEE9AEDDF
:100A4E0099400DC3EF9BFFEE9AFEED99FDE842F043
:100A5E00DC23ACF0D0E0FFD0E0FED0E0FDAB822096
:100A6E00E7101BEB60BAEC2CFCEF33FFEE33FEED20
:100A7E0033FD020AF3E803F830E705C0F075F00025
:100A8E00EF2FFFEE33FEED33FD40B830E7C280AA04
:100A9E0075F020800E75F010800575F0087D007ED3
:100AAE00007F003392D530D503120B26EC33401065
:100ABE00EF33FFEE33FEED33FDEC33FCD5F0ED22DC
:0E0ACE00E5F0247EA2D513CC92E7CDCEFF2218
:100ADC00E9D2E7C933E833F892D5EDD2E7CD33EC60
:070AEC0033FC5002B2D522D9
:100AF300EC30E7100FBF000C0EBE00080DBD000464
:100B03000BEB6014A2D5EB13FCED92E7FD2274FF0F
:100B1300FCFDFEFF22E480F8A2D574FF13FC7D8068
:030B2300E480EF7C
:03000000020CCE21
:0C0CCE00787FE4F6D8FD758111020D1549
:0E0B2600C3E49FFFE49EFEE49DFDE49CFC22E0
:100B3400D083D082F8E4937012740193700DA3A350
:100B440093F8740193F5828883E473740293686064
:060B5400EFA3A3A380DF64
:100CDA00020D5AE493A3F8E493A34003F68001F2C9
:100CEA0008DFF48029E493A3F85407240CC8C3331B
:100CFA00C4540F4420C8834004F456800146F6DFEA
:100D0A00E4800B0102040810204080900D63E47E09
:100D1A00019360BCA3FF543F30E509541FFEE493DE
:100D2A00A360010ECF54C025E060A840B8E493A3A5
:100D3A00FAE493A3F8E493A3C8C582C8CAC583CAD0
:100D4A00F0A3C8C582C8CAC583CADFE9DEE780BE88
:010D6A000088
:00000001FF
